:020000022000DC
:1060000000000120396202009162020093620200E6
:10601000956202009762020099620200000000008F
:106020000000000000000000000000009B62020071
:106030009D620200000000009F620200A162020057
:10604000D5950200A7620200E997020055A202005E
:10605000AD620200AF62020071960200B3620200FC
:10606000B5620200B7620200B9620200BB620200C0
:10607000BD620200BF620200C1620200C362020090
:10608000C5620200156E0200C9620200CB62020006
:10609000B16E0200CF6202000DE90200D36202007D
:1060A000D5620200D7620200D9620200DB62020000
:1060B000DD620200DF620200A3620200A36202004E
:1060C000E1620200E3620200E5620200E7620200B0
:0C60D000E9620200EB620200ED620200D7
:1060DC00354936480A1A02D0072291438D46344975
:1060EC0034480A1A06D00722914381F30988022208
:1060FC0082F3148830483149314A00F044F8314871
:10610C003149324A00F03FF831483249324A00F006
:10611C003AF832483249334A00F035F832483349BC
:10612C00334A00F030F833483349344A00F02BF846
:10613C0033483449344A00F026F8344834490022B4
:10614C0000F02CF833483449002200F027F833488B
:10615C003349091A082902DB002202604160314AE6
:10616C0090471F481F49884205D00268043003B489
:10617C00904703BCF7E700208646EC460020002140
:10618C00294A9047FEE7884207D0521A05D0037877
:10619C0001300B700131013AF9D17047884202D0BD
:1061AC0002700130FAE770470000012000E0002087
:1061BC0000000120000001201C0D030070220020B3
:1061CC00E4220020F0620200F0620200FCF90200FE
:1061DC001C0D030070220020702200207CFB0200AA
:1061EC007CFB02007CFB02007CFB02007CFB0200BF
:1061FC007CFB02007CFB02007CFB02001B0D0300FD
:10620C00900D0300E4220020E4220020E422002070
:10621C00A0330020A0330020A0330020A0330020A6
:10622C00A05300205D62020041AF02000F484FF006
:10623C000701884385460E4880470E48016841F4A3
:10624C0070010160BFF34F8FBFF36F8FFFF740BF3B
:10625C0009480A490A4A884207D0521A05D00378DD
:10626C0001300B700131013AF9D170470000012067
:10627C005990020088ED00E024FB02001822002057
:10628C0070220020FEE7FEE7FEE7FEE7FEE7FEE7F2
:10629C00FEE7FEE7FEE7FEE7FEE7FEE7FEE7FEE7CA
:1062AC00FEE7FEE7FEE7FEE7FEE7FEE7FEE7FEE7BA
:1062BC00FEE7FEE7FEE7FEE7FEE7FEE7FEE7FEE7AA
:1062CC00FEE7FEE7FEE7FEE7FEE7FEE7FEE7FEE79A
:1062DC00FEE7FEE7FEE7FEE7FEE7FEE7FEE7FEE78A
:0462EC00FEE700BF0A
:1062F000F0B595B01D46164608460C4602F099FDCD
:106300001A9B0D93CDE9086500252B46082205A9A7
:1063100020460A958DF82C500C9502F0C5FD079B80
:106320000293069B03939DF814308DF8115003F0EF
:106330000302012A1DD1BDF81420059DC3F3C20339
:10634000C2F383168DF81030B20008230EA9204640
:1063500002F0AAFDC5F3952508AB0093324602ABC7
:106360000EA9284600F0EEFB204602F066FD15B0AF
:10637000F0BD022AF8D1BDF81650C3F3C203C5F32D
:1063800089158DF810300827082D2E4628BF0826BD
:106390003B4632460EA9204602F086FDAD1B08ABF7
:1063A00002AA31460EA8374400F030FC002DEBD194
:1063B000DAE70000014B01221A7070472523002004
:1063C0007047000070B50E4D06460FCD88B06C4684
:1063D0000FC495E80F00002E84E80F00094A0A4810
:1063E0004FF0060308BF00226946009303F080F8CF
:1063F00008B100F065FC054B1E7008B070BD00BF11
:106400007CFB0200B563020070220020E422002021
:1064100007B5044B0093044A4023FFF769FF03B01C
:106420005DF804FB2D640200E522002038B50D481C
:106430000D4C0E4D002323700378EB5CD2B263B198
:10644000043003F01FFE08B100F03AFC084B1A7844
:1064500012B12378002BFBD038BD0C3003F002FCC6
:10646000F1E700BF7022002025230020302B002000
:10647000E422002008B50848084A0378D35C3BB101
:10648000043003F091FDBDE808400020FFF79ABFFB
:106490000C3003F079FBF6E770220020302B00204F
:1064A0000120FFF78FBF000010B5054CFFF7F8FF84
:1064B0000421204600F0B4FA0123637210BD00BF2E
:1064C00084220020037813F0030F03F0040202D0AB
:1064D00012B910467047B2B103F00303012B03D089
:1064E000022B09D0012070470A6800880232C0F3ED
:1064F000831002440A60F5E70B684288023303EB1D
:1065000092130B60EEE70B684288013303EB9213A2
:106510000288F4E72DE9F04FDFF830A187B00F468D
:1065200000230446861C0DF1070015468DF8073040
:1065300000F0B4FEDAF800103960DAE901321344F1
:1065400001335B1A0AF21C470AF583690AF2144800
:10655000B3421CD30020002D73D004F00F039B0125
:1065600043F0050363F30F00DAF80020DAF808308F
:106570001340033332444AF823009DF80700CAF859
:10658000002000F0AFFE012007B0BDE8F08F012130
:10659000384601F004FF484601F01CFF404601F078
:1065A00019FFDAF80400DAF808B0029000EA0B00EC
:1065B00003300AEB800002A9FFF784FF029B50BB67
:1065C0000BEA03020AEB820203F1020CD268039287
:1065D000013303EA0B0B0AEB8B0B02F00302012AD7
:1065E000DBF80C10CDF808C023D0022A16D0834661
:1065F000404601F0F2FE10B1029BCAF80430594641
:10660000384601F0CCFEDAE901231344DAF8002021
:1066100001339B1A9CE70BEA0300C9E7BDF80E3073
:10662000C3F3891303334FEA114B0CEB930302932B
:10663000DEE7BDF80C30C3F383134FEA114B63441C
:10664000F5E7A40544F006008EE700BFF82300201C
:1066500008B50E4B0E48FF229A600022C3F818249A
:10666000C3E90022C3F8142483F8202402F09AFB23
:1066700038B9084A084B09499B1ADB0802469A4276
:1066800000D108BD21F822200132F8E7F8230020CC
:10669000E4FA02005CFA0200E4FA02001822002088
:1066A00030B50A4C71B10A4A0A49121BD2080023BC
:1066B0009A4201D1002030BD31F82350854202D0EA
:1066C0000133F5E7034654F83300F4E75CFA0200BF
:1066D000E4FA02001A220020094B013903EBC00042
:1066E000032909D8DFE801F00A02040604207047F4
:1066F000007970474079704700207047022070474A
:106700005CFA0200034BD3E90030C31A58425841E7
:10671000704700BFF82300202DE9F04387B0FFF752
:10672000F1FF0646002840F0FE80804CC4F81804B3
:10673000BFF34F8F6368A56802932B40033304EBCC
:10674000830002A9FFF7BEFE029A0746002865D122
:1067500005EA020304EB8303911C0132DB68039317
:106760002A4004EB820203F00303D2680291022B59
:1067700004926BD1BDF80E306D48C3F38918B8F19F
:10678000500FC14628BF4FF0500909F1080169F3C5
:106790008F13C1F30901ADF80E3002F01BFB064662
:1067A000002800F0AE8002F044FB3B46082203A91B
:1067B000304602F050FB029925EA01020132B9EBA2
:1067C000820F4FEA82033AD95FFA89F99BB32940D5
:1067D000DDB2A9EB050903315FFA89F7A946554DEA
:1067E00004EB810108234A46304602F034FB45B1F0
:1067F00009F108095FFA89F33A462946304602F062
:106800002AFB029B08F1030803EB98030293D4F8D8
:106810001834002B4FD1D4F810545DE02368934214
:1068200004D86360304607B0BDE8F0832A400332E5
:1068300004EB820085E73F491D461F46D2E7294009
:10684000033108234A4604EB8101D7E7012B58D1D5
:10685000BDF80C303648C3F38311062928BF062142
:1068600061F38913023101F00F018900ADF80C309A
:1068700002F0B0FA0646002843D002F0DAFA3B46AE
:10688000082203A9304602F0E6FABDF80C20C2F354
:106890008312BB00974203F10803B8D202994A1C45
:1068A00029400331029204EB81010422304602F0B8
:1068B000D2FA0137E9E7304602F0BFFAFFF722FFCC
:1068C00080F00100C6B2ADE76B7A23B12B68314688
:1068D0001B68284698476D68002DF5D1304602F0B8
:1068E000ACFA0DF107008DF8075000F0D7FCD4F892
:1068F00018340BB9029B63609DF8070000F0F2FCAE
:10690000DCE7D4F8104444B90B4B0C491888000458
:1069100040F0020000F060F8D0E7236820469B6852
:1069200098476468EFE700267CE700BFF823002063
:10693000E4FA02000424002030220020A8FB020018
:106940002DE9F74F224E04460F46924601A9012237
:106950001846D6F808909B46FFF7DCFD20B3019D52
:106960004FF00008AA1CD84508EB020126D11948AF
:10697000002101F0CDFC80F31000000440EA144037
:10698000E4006B1C04F0380403EA090305EA090576
:1069900044F0010406EB8303033544EA881444EA17
:1069A0008724D86046F8254096F820341BB1FFF7BD
:1069B000B3FE0028FBD103B0BDE8F08F09EA010166
:1069C00006EB81015AF82830CB6008F10108CAE7CC
:1069D000F82300201428002000231A46FFF7B0BF38
:1069E00007B50123019201AAFFF7AAFF03B05DF8E2
:1069F00004FB07B5CDE9002302236A46FFF7A0FF99
:106A000003B05DF804FB1FB5CDE90123069B03939A
:106A100001AA0323FFF794FF05B05DF804FB000013
:106A200030B50E4CD4F8102403460020114629B985
:106A3000187242B9C4F810345A6030BD0D7A8542DC
:106A400005D04968F3E7516859605360F5E70130B4
:106A50000A28EBD14FF0FF30EFE700BFF82300200A
:106A600038B5074B0125D3F8104483F8205404B9F6
:106A700038BD2368657220465B6898476468F6E70E
:106A8000F823002030B5C38885B004460D4633B1E5
:106A9000144A00921449154A284601F001FD217A52
:106AA00005291DD0637A4BB1A088FFF715FE104B66
:106AB000104953F82020284601F0F2FC227A0E4BB0
:106AC000A08853F8222003920021FFF7E9FD039AE2
:106AD0000A490346284605B0BDE8304001F0E0BC55
:106AE00005B030BDF0FB0200D8FB0200D0FB020075
:106AF0005CFC0200F5FB020080FC0200F8FB0200D7
:106B000007B503460846197A052911D05B7A2BB1DF
:106B1000094A0A49019001F0C3FC01980849019013
:106B200001F0BEFC019803B05DF804EB01F0ADBCD0
:106B3000002AF8D0F2E700BFF0FB0200F5FB0200EC
:106B40006B0A03002DE9F04385B01F460C9D00231E
:106B500095F80C902B7306460C469046294638460D
:106B6000FFF790FFB8F1060F09D8DFE808F004122C
:106B7000181F283340003146284601F091FC0022BE
:106B800029463846FFF7BCFF85F80C9005B0BDE8F4
:106B9000F08322683146284601F082FCEFE7D4E911
:106BA00000233146284601F07BFCE8E7A368009308
:106BB0003146D4E90023284601F072FCDFE7E368A0
:106BC0000193A36800933146D4E90023284601F0DD
:106BD00067FCD4E723690293E3680193A3680093F9
:106BE0003146D4E90023284601F05AFCC7E763691F
:106BF000039323690293E3680193A36800933146EA
:106C0000D4E90023284601F04BFCB8E708292DE918
:106C1000F74F80460E4617461C4639D8002593F894
:106C20000C901D7319461046FFF72CFFDFF880A06B
:106C3000DFF880B0AE422ED918F80520594620461C
:106C400001F02EFC0135082DF4D11849DFF868A0B9
:106C5000DFF868B0204601F023FC0025AE421FD9C2
:106C600018F805200192104608F0B6FA0028019A9B
:106C7000594608BF2E22204601F012FC0135082D8E
:106C8000ECD1012221463846FFF73AFF84F80C90F8
:106C900003B0BDE8F08F5146204601F001FCD1E77A
:106CA0005146204601F0FCFBE8E700BF0CFC020067
:106CB00008FC020002FC02000AFC02000EFC0200BA
:106CC0001FB50021039001AA44F20100CDE9011192
:106CD00000F004F805B05DF804FB000010B572B6D2
:106CE000FFF7BEFEFFF718FD0028FBD1104C11493D
:106CF0002088000440F00100FFF76EFE0E4BD3F831
:106D0000F030DB0700D500BE20880C49000440F0BD
:106D10000200FFF761FEBFF34F8F0749084BCA68B7
:106D200002F4E0621343CB60BFF34F8F00BFFDE777
:106D30003022002094FC020000ED00E0A0FC0200E4
:106D40000400FA05094B5A7899780132D2B291427F
:106D500008BF0022197891421FBF0270587818228C
:106D600002FB003014BF0430002070471C280020B4
:106D700073B5054600240DF107000E468DF8074057
:106D800000F08CFA0DF10600FFF7DCFF90B1067001
:106D9000094B9DF8062045605A709DF8070000F0E9
:106DA000A1FA24B9054B4FF48012C3F80021204604
:106DB00002B070BD0424F0E71C28002000E100E0D0
:106DC000024B4FF43C6043F001031847B0FC020053
:106DD00038B50C4B0C4C4FF40032C3F88020012521
:106DE0004FF48033C4F84833C4F808336560FFF7C4
:106DF000E7FF064BA56000241C60FFF7E1FF044B92
:106E00001C7038BD00E100E000100140382900206E
:106E100029290020F8B51F4B1F491B680025C1F820
:106E20004051C1F84451C1F84851C1F84C51C1F822
:106E30000051C1F804514BB3D1F804451749096812
:106E4000641A24F07F442F461A68A24209D8A41A73
:106E500015441A7CDE691AB1D3E905201F749047E6
:106E6000AEB90F4A0F4B11781B788B4205D1013315
:106E7000DBB2022B08BF0023137012780A4B43F8D1
:106E800022500A4B4FF48012C3F80021F8BD33465C
:106E9000DAE700BF3C29002000100140382900201B
:106EA00035290020342900202C29002000E100E0B1
:106EB0002DE9F04FA14AA24913780978A14D9942D2
:106EC00085B03CD00133DBB2022B08BF0023137026
:106ED0009D4912789D4B0F6853F822003B1823F010
:106EE0007F4300220B602B6816461446944613B964
:106EF00042B12B6006E0196881420ED902B12B60C5
:106F0000091A196001272B68DFF848A201934FF096
:106F10000008BEB9DFF844B260E0401A0C44D968FA
:106F2000D3F81CE0C3F800C031B13A1922F07F4217
:106F3000C3E90121DE611E4673460122D7E7002620
:106F40003746E0E73446F6697F4B60681B68DFF838
:106F500010C2A168C21A22F07F42624500F2A680E8
:106F60000A442260012222742A680023C4E9013302
:106F7000E361002A40F0A3802C60CAE79BF802106E
:106F80005A1CD2B291428BF8002004BF00228BF829
:106F90000020182202FB03B32A6819799C68022991
:106FA00075D003297FD0012918D1207CB0B9D3E94D
:106FB0000312A2605A69E2609A69654BA2611A786D
:106FC000002A18BF01466160BEE78C4200F0948041
:106FD0008946C9690029F8D1002323749BF8003041
:106FE0009BF801209A42C9D12B68B8F1000F04D157
:106FF000019A9A4201D1002F43D0002B79D0D3F8C7
:1070000000A0544D504BD5F804751C68DFF854812E
:107010003E1B98F8003026F07F4603369BB94FF4AC
:107020008033C5F84433C5F804334B4B4FF400327A
:107030004FF00109C3F880211A60C5F80090FFF7EE
:10704000BFFE88F80090B2452CBF5444A41924F028
:107050007F44C5F84045D5F80435DB1B23F07F435A
:10706000E41B033324F07F44A3420AD9D5F8043546
:10707000C5F84035FFF7A4FE374B4FF40032C3F894
:107080000021334B00221A7005B0BDE8F08F114685
:1070900091469FE71174D2690123002AFAD1002B8F
:1070A0009CD02A609AE700231946F6E71B1A23F0C2
:1070B0007F438B4234BFCB1A0023236052E7216801
:1070C0001368994213D85B1A1360E26154E7091AF6
:1070D000D8691A4638B1034618688842F7D3401A6F
:1070E0001860184613462160E061DC6111E7134621
:1070F000F2E7FFF76DFEC4E74C4511D1D3692B6071
:1071000073B9DFF844E00120CDE90212CAF80800A3
:10711000CEF800300E4B1870FFF752FEDDE9021278
:107120000B68C969C9F81C1011B1086803440B60E9
:107130002B68934218BF4FF001084DE73429002017
:10714000352900203C290020382900202C29002046
:10715000282900200010014000E100E01C28002048
:10716000FEFF7F002929002008B5FFF731FE104BF4
:1071700000200B2218809A700E4B18600E4B18706E
:107180000E4B18700E4B4FF48012E021C3F8802193
:1071900083F814131A6002F18042A2F56F22C2F83C
:1071A000080583F81113074BD2F804251A6008BDAF
:1071B0001C2800203C2900203429002035290020EB
:1071C00000E100E038290020074B9B784BB132B139
:1071D00028B10368187C20B959745A617047072098
:1071E00070470820704700BF1C2800202DE9F74396
:1071F000DFF8848098F8023005460E461746ABB398
:10720000A0B3042930D9436983B3437C0024012B04
:107210000DF107000CBF8946A1468DF8074000F02C
:107220003DF80DF10600FFF78DFDD8B10123037085
:107230000F4B4560D3F80435C0E90497C0E9023626
:107240009DF8063088F801309DF8070000F04AF8F4
:1072500024B9084B4FF48012C3F80021204603B034
:10726000BDE8F0830424EFE70724F7E70824F5E7F7
:107270000010014000E100E01C280020064A92783E
:107280003AB130B1426922B1002202740221FFF703
:107290006FBD0820704700BF1C28002070B5EFF3B9
:1072A000108672B60C4A946801239CB993600B4B0C
:1072B0000B4DD3F8801029401160C3F88050D3F8EB
:1072C000841051604FF0FF32C3F88420047006B977
:1072D00062B670BD0370FAE74029002000E100E0CB
:1072E000FC06FFBD084B9A6810B55AB150B9EFF3D0
:1072F000108172B6054A1C6814605C68546098601E
:1073000001B962B610BD00BF4029002000E100E0D5
:1073100070B5064D0646002455F8043B0BB13046C7
:1073200098470134042CF7D170BD00BF58290020C4
:107330004388033300EB8303994209D382884FF6D5
:10734000FF739A4206D00088B0FA80F04009704777
:107350000220704701207047033080B240F2FD33B5
:10736000984230B51FD8124B1A783AB91C895D89FA
:107370002C440444A4B2B4F5806F0AD31A7DA2B998
:107380009A8BDC8B2244024492B2B2F5806F0CD20D
:1073900001220A801446142202FB04335A89104445
:1073A0005881002030BD0920FCE70720FAE700BF24
:1073B0008C2900200B4A0C495388142000FB031130
:1073C000CB6833B90420496810700122074801F0E6
:1073D000DDBA07490523137002238B800122096857
:1073E0000023F3E7702900208C2900205C22002074
:1073F000442A002007B5002305490093054A09687F
:107400000548082301F03AFA03B05DF804FB00BF19
:10741000442A0020D4FC02005C22002007B500238F
:1074200001460093034A0448082301F027FA03B0F9
:107430005DF804FBCCFC02005C22002013B50023A5
:107440000C4600930146084A0848042301F016FA46
:1074500038B9074B142101FB043101230B7402B02E
:1074600010BD0E20FBE700BFC8FC02005C2200201C
:107470008C29002037B50A480A4B42689C88196855
:1074800053880325033305709BB2002000909B00B6
:1074900001EB8401044801F0F1F903B030BD00BFF5
:1074A00070290020442A00205C22002010B50146EB
:1074B000044800F061FE1C220446002107F01BFF77
:1074C000204610BD9022002068B10268084B9A4205
:1074D00009D14068074B984207D00133984214BF46
:1074E000032001207047032070470020704700BF31
:1074F000DEC0ADDEFE011EF12DE9F0410D46022396
:10750000154F2B80164600F5805100F108044FF00E
:1075100001088C420ED2236801330BD02046FFF7BE
:1075200007FF48B10EB186F80080022809D14FF458
:1075300080632B80BDE8F081A3683A68934200D94C
:107540003B602B886288033313442B8063880333AA
:1075500004EB8304DDE700BF8429002038B5144B19
:1075600014220D4602FB00302B68446804F580515C
:10757000A3B15C88033403EB84048C4215D22368E6
:10758000013312D02046FFF7D3FE012808D002288D
:107590000BD00028F1D12C60012038BD0834ECE775
:1075A0006388033304EB8304E7E70020F5E700BFBB
:1075B0008C290020426873B504460D4662B3234B04
:1075C000D9688A4228D31B699A4225D812F003034E
:1075D00022D11F490089098988421DD120689168FC
:1075E000884219D11B4841688A4203D901F580516C
:1075F0008A420DD381698A420CD901F580518A42B1
:1076000008D201222A80B3FA83F0400902B070BD8B
:107610001A46F7E70A23F6E700262E800196288807
:1076200001A9FFF79BFF30B92B8801339BB2012BD7
:107630002B80F3D9EAE7019B226899689142EED149
:107640006360034B1B892381E0E700BF5C220020BD
:10765000702900208C2900202DE9F8431C461C4B82
:107660001B7806460F4615466BB372B36CB3DFF852
:1076700068804FF01409A388012B01D90A2020E06B
:1076800009FB03F318F803302BB9A0882146FFF754
:1076900065FF20B92060A3880133A380EBE723684E
:1076A0001EB1998832889142EFD11FB119883A886A
:1076B0009142EAD19A68C5E90023064B1B892B81C8
:1076C0000020BDE8F8830220FBE70520F9E700BFB2
:1076D00068290020702900208C29002008B5074B5C
:1076E0005888191DFFF73AFF18B1BDE80840FFF7A9
:1076F000C1BEBDE80840FFF75DBE00BF7029002095
:107700002DE9F0479F4FDFF8A08288B006463B681E
:1077100023B99D48414600F069FD38603D682978ED
:107720004B1E052B07D8DFE813F01F00770077000A
:10773000070107015B010F241422002103A807F0B1
:10774000DAFD41F61D539C4208BF00243B680494B7
:107750001A78023A042A00F2F981DFE812F0DA011D
:10776000E60108021002170226B1884B00225A6077
:107770000124E1E72B79032B1CD8DFE803F0140286
:107780002934834A1378022B19D0137D022B4FF032
:10779000010316D114214B43D1180020D05448685E
:1077A000FFF73CFE03E001232B71FFF723FE0028C7
:1077B00000F0BD80754B00225A600E24BCE7002308
:1077C000E8E7724A13700023536041F61D54B3E793
:1077D00070497148002302222B718A8009680122B6
:1077E00001F0D4F8E3E76B4C00262E712068FFF718
:1077F00015FE6A4BDFF898C15B8825681422534355
:107800000CEB03020CF8036051685560A5881581E4
:1078100002222160A280CAE7B5F814A0AA7DDFF891
:107820007091AEB1022AEB8806D9142101FB0A91AE
:10783000DA1C088902440A81142202FB0A99C3F562
:107840007F43B9F80A20FD331344A9F80A308FE7C3
:10785000142303FB0A9318895C6804EB8004062A4E
:1078600068D8DFE802F0274D35431D59040041F682
:107870001D54AA7DEB88022A06D9142101FB0A9126
:10788000DA1C088902440A81142202FB0A99C3F512
:107890007F43B9F80A20FD331344A9F80A304BE7B7
:1078A0003F48404900234360AB690360FFF782FE15
:1078B000002859D00223AB75002300930423EA1853
:1078C0002146354800F0DAFF002830D00E24D0E7FA
:1078D0002B69002B14BF03230123AB7500230093F6
:1078E00005F10C02042304F10801EAE70123AB755A
:1078F0000022EB8800922A699B0004F10C01E0E76A
:1079000003290CBF05230623AB7500230093042332
:1079100005F10802E118D4E70623AB75214B19885D
:107920001F4B5868FFF78AFD04460028A1D108B014
:10793000BDE8F0870F249CE7002E7FF419AF2B7968
:10794000012B33D0022B3FF440AF002B7FF4F3AE7A
:1079500002232B710DF10A01EB68039303A8CDE913
:107960000466FFF727FE08B90A24E5E60498BDF887
:107970000A108388EB8003882B81FFF75FFD0446A4
:1079800027E000BF882900209022002068290020DD
:107990008C290020442A00205C220020702900202D
:1079A0004C290020502A002080290020DFF8F8917F
:1079B00003AA4B463146A81DFFF74EFE044660B9A8
:1079C000B9F804100498FFF739FD04460A2C3FF477
:1079D000FCAE002C7FF4B0AEA9E7C9E90066F5E77C
:1079E000002E7FF4C5AE6B4B1A7BBAB11E731A78AA
:1079F000013A062A3FF69FAE01A151F822F000BFDE
:107A0000A77A0200CD7A0200EB7A0200F17A020036
:107A100037770200F77A0200097B02001A78072AFA
:107A2000E5D801A151F822F0497A0200EF7902006D
:107A3000EF7902006F7A0200837A0200A37A0200D3
:107A4000A37A02006B7A02001A89534901321A8123
:107A500000225A801A730A78B2FA82F252099A7294
:107A60000A7DB2FA82F25209DA72012207E04B492A
:107A700058688A884088033202448A8002221A7039
:107A8000B5E75C88444A4549142505FB042208688B
:107A9000546850608888108102228A800C60062217
:107AA000EDE70722EBE79A7A32B9DA7A8AB900224F
:107AB0001A705A805A6088E6374900229A72CA685A
:107AC000002AF2D1097C0029EFD05A80FFF706FE88
:107AD00055E70022DA72304A116A0029E7D192F89C
:107AE0002420002AE3D00122EFE7FFF7C3FC46E79A
:107AF000FFF760FC43E75A88274B142101FB023350
:107B00005868FFF78BFC3AE700225A60FFF772FCD7
:107B100035E701228DF80C201A89ADF818209A88D3
:107B2000DB68ADF81A20059310E002228DF80C20D6
:107B30001A89ADF818209A88ADF81A20DA689B7D6A
:107B400005929A1F534253418DF81C3003A8FFF74A
:107B5000DFFB0026414612483E6000F072FB1148F0
:107B6000012100F028FC00287FF4D1ADDFE60322DC
:107B70008DF80C20DA88ADF818201A89D0E7042295
:107B80008DF80C20DB88ADF81830DFE705238DF881
:107B90000C30DBE7702900208C290020442A0020CB
:107BA00090220020402A0020542A00204068FFF73D
:107BB000A7BD000008B50548012100F0E4FB18B995
:107BC000BDE80840FFF79CBD08BD00BF402A00206B
:107BD0002DE9F3419846354B1B7806460D46002BA0
:107BE0005BD000295BD009884FF6FF73994258D0CB
:107BF0006B88002B55D06B689B0754D14AB92F89ED
:107C00000DF102013846FFF7A7FB30B102B0BDE825
:107C1000F08113885788ADF8023001A8FFF746FCC1
:107C2000044658B9BDF80220214B142101FB023350
:107C300058890338C01B58810820E7E780F8008086
:107C400000238375BDF8023083826B6803610121D4
:107C5000184800F0A4FB2B882381B8F1030F6B8830
:107C6000A38004BF0423A3754FF0000508BF336849
:107C7000E06008BFA3611048E780658101A900F0BA
:107C8000A5FA36B1E36833600C4B75601B89B57299
:107C90003381FFF78FFF0020B8E70220B6E7052009
:107CA000B4E70420B2E70320B0E700BF6829002052
:107CB0008C29002084290020902200207029002097
:107CC00008B5034607480268042A08D00168064A36
:107CD00042F82130012100F062FB002008BD0C2099
:107CE000FCE700BF4C2A0020582900202DE9F04F66
:107CF00089B01422002103A807F0FDFA724B1B780B
:107D000003F0FF0201923BB103A8FFF701FB00263D
:107D1000304609B0BDE8F08F6B4B181D00F057FBE3
:107D20000028F4D14FF010234FF080525B691169A5
:107D30005269DFF8ACB1581C08BF02FB01F3CBF865
:107D400010306249A3F5405300225846CBF80C305E
:107D500000F068FD06460028DAD11C235C495D4826
:107D6000DFF880A1DFF880818C2200F0D0F90323B6
:107D7000B146354600933446DBF80C704F44384624
:107D8000FFF7A2FB012839464AD0032815D0002866
:107D900035D11421614308EB010208F80100576056
:107DA00001F110020831424441443846FFF7A4FB78
:107DB00045F002050134A4B221E007F580520868BD
:107DC000013074D104319142F9D1DAF800203AB986
:107DD00002220123CAF80070AAF8042001930CE0E3
:107DE00014226243022008EB020108F802003A4A1A
:107DF0004F60548001340881A4B245F0010509F5B3
:107E00008059B9F5405FB7D1009B012B98BF002581
:107E1000EDB2022D02D0062D20D045BB0B2677E710
:107E2000019B63B11422624308EB0201022008F8AF
:107E300002000134DAF800204A600881A4B200226E
:107E40002649CAF800703846FFF756FBBAF80420F6
:107E5000022A0CBF042208221543D0E71A4A012344
:107E6000137003A800235360FFF752FA50E702A8EB
:107E7000FFF71CFBC8B10123013D03700A2D09D88F
:107E8000DFE805F006080608070807080F110F00CD
:107E90000023037102A90F4800F098F9FFF78AFE4A
:107EA00036E70323F5E70223F3E7082630E7009BD4
:107EB0005A1E93B21422624308EB020100934F60F2
:107EC000032108F8021075E768290020D4FE02009B
:107ED000B42900209022002070290020482A002088
:107EE0005C220020442A00208C29002073B50D4616
:107EF0000446C8B1C1B10DF10601FFF75BFBA8B1A3
:107F0000BDF806300A486668142202FB030001210E
:107F10000C3000F044FA63682E600C336B60012370
:107F2000A372002002B070BD0520FBE70A20F9E72C
:107F30008C29002013B50446A8B10DF10601FFF706
:107F400039FB90B1BDF806200A4B142101FB023326
:107F5000DA6862B1A27A52B1DA680020013ADA60D6
:107F6000A07202B010BD0520FBE70A20F9E7062049
:107F7000F7E700BF8C2900200B4B1B7837B5044670
:107F80000D4663B168B10DF106012846FFF7E4F92B
:107F900018B9BDF806302380658003B030BD0220DB
:107FA000FBE70520F9E700BF68290020104B1B788C
:107FB00010B5B3B1B8B10188022916D80D4A43886B
:107FC000142404FB01229C1C51898C420DDAC3F558
:107FD0007F43FD330B4453810023038043801846C5
:107FE00010BD0220FCE70520FAE70420F8E700BFF7
:107FF000682900208C29002002230022FFF7E8BD19
:1080000012B10223FFF7E4BD0520704718B1032326
:108010000022FFF7DDBD052070470000104B1B78E4
:1080200013B50446ABB14FF6FF73984213D001A8C5
:10803000FFF73CFA88B10523037001230371C48064
:1080400001A9084800F0C2F8FFF7B4FD002002B013
:1080500010BD0220FBE70420F9E70820F7E700BF86
:1080600068290020902200200E4B1B7807B5A3B191
:1080700001A8FFF71BFA90B10623037001A90A4873
:1080800000F0A4F8094B1A780AB101221A73FFF71D
:1080900091FD002003B05DF804FB0220FAE7082000
:1080A000F8E700BF682900209022002070290020F6
:1080B00007B5ADF80600ADF804100DF1060001A9F2
:1080C000FFF7CAFA03B05DF804FB07B51346ADF835
:1080D00006000A4600200DF10601FFF7BDFA03B0C5
:1080E0005DF804FB07B51346ADF806000A460DF12E
:1080F00006000021FFF7B0FA03B05DF804FB20B1E1
:1081000019B103680B60002070470520704710B557
:1081100061B1B2FBF3F403FB1424A4B244B9C0E987
:10812000001484608281C381204610BD0E20FCE7CC
:108130000920FAE782B050E8022FC188B2EB324F33
:108140004FF0000317BF92B241EA014142EA0141F8
:1081500004E04268B2EB324F08BF012340E802124C
:10816000002AE8D18DF807309DF80730002B0CBFAE
:108170001120002002B0704737B550E8013F9DB292
:10818000C48925448489A54228BF2D1B0489A542A2
:1081900002BFBFF32F8F002207E0C5EA030540E8C6
:1081A0000154002CE9D14FF001028DF80320019316
:1081B000019A0A609DF8031001F0FF0321B10068E5
:1081C00010FA82F003B030BD1846FBE70A884B88EE
:1081D0009A4209D150E8012FC2EA024240E8012345
:1081E000002BF7D1012070470020704737B550E8C9
:1081F000023F1FFAA3F5C488A54202BFBFF32F8F29
:1082000000220DE0C48925448489A54228BF2D1B86
:10821000C3EA054540E80254002CE8D14FF00102C2
:108220008DF803200193019A0A609DF8031001F074
:10823000FF0321B1006800EB124003B030BD1846C7
:10824000FBE70A884B889A4209D150E8022FC2EA1C
:10825000224240E80223002BF7D101207047002082
:10826000704701F01F024B090121914000EB830090
:1082700000F065B84B0910B501F01F040121A140C1
:1082800000EB830000F04FF8E04000F0010010BD6B
:1082900001F01F0301229A404B0900EB8300D143F8
:1082A00000F065B84B0901F01F0150F82300C840E9
:1082B00000F0010070472DE9F0474F1E7F0980460E
:1082C0000E460137002558F8254008EB8509E443A0
:1082D00094FAA4F4B4FA84F44FEA451A202C06D197
:1082E0000135AF42EFD834462046BDE8F08754440C
:1082F000A642F5D921464046FFF7BCFF0028F3D03F
:10830000D9F80040E44394FAA4F4B4FA84F4E5E71D
:1083100010B5034653E8000F0A4643E8002494F0E2
:10832000000FF7D110BD10B5034653E8000F40EA27
:10833000010243E8002494F0000FF6D110BD10B5FF
:10834000034653E8002F42EA010043E8000494F09A
:10835000000FF6D110BD10B5034653E8000F00EA38
:10836000010243E8002494F0000FF6D110BD10B5CF
:10837000034653E8002F02EA010043E8000494F0AA
:10838000000FF6D110BD10B5034653E8000F00EB07
:10839000010243E8002494F0000FF6D110BD10B59F
:1083A000034653E8002F02EB010043E8000494F079
:1083B000000FF6D110BD10B5034653E8002FA2EB15
:1083C000010043E8000494F0000FF6D110BD012134
:1083D000FFF7A9BF0121FFF7B2BF0021FFF7BBBF25
:1083E00010B590B1D0E9012301689B1ADBB20A6095
:1083F000013BDBB2FF2B026802D10020107110BDDF
:1084000011684C1C14600B70F2E70E20F7E737B5CB
:10841000054600240DF107008DF80740FEF73EFFEA
:108420002A686B68116899420ED9481E106011F8CD
:10843000013CEC68A98A01FB0344AB6811791B1A63
:10844000DBB2994238BF13719DF80700FEF74AFF6F
:10845000204603B030BD37B5054600230DF10700B7
:108460000C468DF80730FEF719FF2A681368591C6F
:108470001160E968641AA98AB4FBF1F41C709DF8D4
:108480000700FEF72FFF03B030BD826810B5044629
:108490002AB143690168006998470023A36010BDB1
:1084A0000EB403B5039921B104AB01AA019300F006
:1084B0006FF802B05DF804EB03B07047826830B427
:1084C0000468551C8560A154D0E901329A4202D358
:1084D00030BCFFF7DABF30BC704700002DE9F84F21
:1084E0009846DDE90A43154682460F460A464FF094
:1084F0000109AA420FD2C14538BFC14613F0010B92
:1085000001D16CB900240126B8F1010F1BD908F183
:10851000FF386E43F8E709F10109B2FBF5F2E8E72D
:108520009B070ED5B8F1000F0CBF30262026A145C1
:10853000E9D2013C31465046FFF7C0FF002CF6D18E
:10854000E0E72026F3E7B7FBF6F39D42E1D9DFF839
:108550003C80B7FBF6F3504618F8031006FB137780
:10856000FFF7ACFF3346AB42B6FBF5F6F1D2BBF1F9
:10857000000F02D00CB1A14501D3BDE8F88F202136
:108580005046013CFFF79AFFF4E700BFDCFC020015
:108590002DE9F74F054617468846002900F03E8131
:1085A00018F8011B49B92B7B002B00F037812846B6
:1085B00003B0BDE8F04FFFF768BF252940F0B78052
:1085C000002698F800302D2B424608F1010823D0F0
:1085D000302B24D02B2B25D000242A2B02F1010193
:1085E00023D13B681A1D1B683A601C440A46137865
:1085F0002E2B26D101324FF0000A104610F8011B35
:10860000A1F1300CBCF1090F1DD80A2303FB0A139A
:10861000A3F1300A0246F0E746F00106D1E746F042
:108620000206CEE746F00406CBE711F8013CA3F1C1
:1086300030000928DBD80A2202FB0434303C0A4609
:10864000CBE74FF0000A12F8011B01F0FB0068288D
:108650009046F8D0782909D86F290CD8632962D0C0
:1086600022D8252963D0582900F0888098F8003056
:10867000002B95D197E770390829F7D801A353F853
:1086800021F000BFF78702006D8602006D860200B0
:108690008D8702006D8602006B8702006D860200E6
:1086A0006D8602007D870200642901D06929DDD131
:1086B0003A68D2F80090111D89EAE9723960A2EB9C
:1086C000E9724FF0010B092A35DCD34538BFD34698
:1086D0002CB1B9F1000F01DB720700D5013CB307E3
:1086E00002D5BAF1000F03D0F00701D44CBB00242F
:1086F000B9F1000F2DDAC9F100092D212846FFF745
:10870000DDFE06F00302022A04D1BAF1000F01D106
:108710001CBB0024CDE9004653460A2249462846A0
:10872000FFF7DCFEA2E73B681A1D19783A6028467D
:10873000FFF7C4FE9AE70A230BF1010BB2FBF3F239
:10874000C1E7A345D4D220212846013CFFF7B6FE5D
:10875000CCE77107D5D52B21D0E7A345DAD230215C
:108760002846013CFFF7AAFED2E73968CDE900466A
:108770000A1D3A6053460A220968D0E739680A1D83
:108780003A60CDE9004653461022F5E73B681A1DD2
:108790003A6016F00106D3F8009024D1B9F1000F29
:1087A00003D0484606F0FCFD0646B4421DD809F148
:1087B000FF3919F8011F00293FF458AF2846FFF789
:1087C0007DFEF6E728460136FFF778FE19F8061019
:1087D0000029F7D1A642BFF449AF20212846013C29
:1087E000FFF76CFEF6E70026F0E720212846013C63
:1087F000FFF764FED9E73B681A1D3A60302128462E
:108800001C68FFF75BFE78212846FFF757FE002221
:108810000823CDE900322146102280E703B0BDE8ED
:10882000F08F00BF13B50B46114670B90E4B0F4ABF
:1088300018880E2300930E4B00040E4940F00100EF
:10884000FEF7E1F80E2002B010BD3BB9064B0A4A14
:1088500018880E2300930004054BEEE703601B68A5
:1088600002B0BDE81040184748220020ECFC02008E
:10887000A8FE0200F1FC020020FD02002DE9F743F2
:10888000DDF8288078B9364B364A1888364B0E24E6
:1088900000040094354940F00100FEF7B4F820468A
:1088A00003B0BDE8F0833AB92D4B314A18882E4BFE
:1088B0000E2400040094EDE7D0F800E0BEF1000FB4
:1088C00007D1274B2B4A1888274B08240004009413
:1088D000E0E73BB9224B284A1888234B09240004BF
:1088E0000094D7E74568D5F80490B3FBF9F509FB88
:1088F00015353DB11A4B214A18881B4B0924000439
:108900000094C7E78D0707D0154B1D4A1888164BF2
:10891000102400040094BDE712F0030F07D0104BA1
:10892000184A1888104B102400040094B2E7C56858
:10893000A9420DD34D1EEC180569AC4208D8CDF8FC
:108940002880DEF80C40A44603B0BDE8F043604741
:10895000034B0D4A1888044B10240004009499E737
:1089600048220020ECFC020095FE0200F1FC02000F
:108970006EFD02001AFD02002DFD020074FD0200D2
:108980009EFD0200B6FD0200D9FD0200F7B570B9E8
:10899000254B264A1888264B0E24000400942549AE
:1089A00040F00100FEF72FF8204603B0F0BDD0F8EC
:1089B00000C0BCF1000F07D11B4B1F4A18881C4B8D
:1089C000082400040094EAE73AB9174B1B4A1888B8
:1089D000174B092400040094E1E74568D5F800E04E
:1089E0000EF1FF350D4207D00F4B154A1888104B7A
:1089F000102400040094D2E7C568A9420CD34D1E90
:108A00000EFB02540569AC4206D8DCF81040A446BF
:108A100003B0BDE8F0406047034B0A4A1888044B96
:108A2000102400040094BAE748220020ECFC020065
:108A300082FE0200F1FC02001AFD02002DFD020080
:108A400000FE020026FE020070B550B90E4D0F4C1C
:108A50000026641B1423B4FBF3F4B44208D10020B5
:108A600010E00368002BF1D0BDE87040DB691847C7
:108A70002B6813B901361435EFE7DB6928469847B0
:108A80000028F7D070BD00BF5C22002070220020BB
:108A900029DF704728DF704770B503689E6886B08D
:108AA00004460D466EB114220021684606F023FCF0
:108AB000A3680593237901952BB1012B0DD068464E
:108AC000B04706B070BD01238DF8003023690293D2
:108AD000E368039363690493F1E702238DF80030A0
:108AE000E3681B030293F5E70846704700207047D0
:108AF000024B187A003818BF01207047E82A00207E
:108B0000034B187A0122B0FA80F05A74400970477A
:108B1000E82A002008B510461A4606F0C3FB0020DC
:108B200008BD000008B514220021044806F0E3FB4C
:108B30000348FFF7FFFA002008BD00BFE82A002025
:108B4000A422002010B5094C094B43602046FFF7D2
:108B50003EFC40B905F0C0FE064920741C230648BF
:108B60008C22FFF7D4FA002010BD00BFE82A0020B5
:108B7000C8FE02005C2A0020A422002038B5234D44
:108B8000234C2B7A3BB923492348FFF72FFB206066
:108B900008B9686038BD022324682B72237973B149
:108BA000012B24D020460321FFF776FF00232B72F0
:108BB0006B6018491848BDE83840FFF742BBD4E95C
:108BC0000523D21AB2F5805FD4E9031028BF4FF411
:108BD00080529208012A38BF012219441844FFF735
:108BE00057FF50B11128DDD101232B72D2E7D4E910
:108BF00003031844FFF74EFFF3E72B7C002BC9D18A
:108C0000BDE83840022000F009B800BFE82A002083
:108C1000002B0020FC2A0020A422002038B5234C81
:108C2000237A002B41D0022B09D1032830D0204BCE
:108C300000221B68E2601A793AB1012A22D0637CD3
:108C40007BBBBDE83840FFF799BFD3E905128D1A09
:108C5000B5F5805F94BF521902F580529A61914236
:108C6000EDD102284FF0000308BF19462372104BC4
:108C700018BF0D211868FFF70FFF0E490E48FFF7C8
:108C8000E0FADCE71A6901321A615B699A42E7E7A8
:108C9000E3680133082B01D8E360D0E70023E360E9
:108CA000DFE7BDE8384005F007BE38BDE82A002000
:108CB000002B0020FC2A0020A4220020831E012B70
:108CC00001D8FFF7ABBF704700F0FD03012B08D1BF
:108CD000044B00225A74421E504250411874FFF750
:108CE0004DBF7047E82A002010B5064C201DFFF745
:108CF0006EFB28B9637C1BB9BDE81040FFF73EBF8F
:108D000010BD00BFE82A00202DE9F34180460D4642
:108D1000104801A916461F46FFF72EFA0446B0B1C7
:108D200018220021043006F0E6FA2D0B01232371EE
:108D300001A90848C4F80080A760E5606661FFF7F4
:108D400045FAFFF7D1FF002002B0BDE8F081042012
:108D5000FAE700BFA42200202DE9F34180460F4628
:108D60000F4801A916461D46FFF706FA0446A8B1AA
:108D700018220021043006F0BEFA089BA36001A966
:108D8000C4E903670648C4F800806561FFF71EFA6E
:108D9000FFF7AAFF002002B0BDE8F0810420FAE747
:108DA000A4220020FFF71CBBF8B546790146721ECD
:108DB0000546002393422D6803D30024A64202D81F
:108DC000F8BD0133F6E70F682846FFF744FB01348E
:108DD0003946F3E72DE9F843868ACD1C0746FFF7AD
:108DE00016FB043E35440446B5FBF6F5F0B14FF4EE
:108DF0008073EDB28380C680013D076081464FF0ED
:108E00000008A84512D23846FFF701FB064648B1D4
:108E100063790133637108F10108C9F80000076044
:108E20008146EEE72046FFF7BFFF34462046BDE807
:108E3000F88301210430FFF7B2BA10B501210446CE
:108E40000430FFF7B8FAC0B220B92046BDE81040A0
:108E5000FFF7AABF10BD2DE9F843B0F80680043330
:108E60000546B3FBF8F40F46164608FB14333CB92D
:108E7000A8EB0309B14528BFB14626B9BDE8F88380
:108E80002D68013CF3E70433E818A6EB09064A46CF
:108E9000391906F007FAB0454C442D68C1464FF029
:108EA000000328BFB146E8E72DE9F843B0F8068093
:108EB00004330546B3FBF8F40F46164608FB14339B
:108EC0003CB9A8EB0309B14528BFB14626B9BDE8B6
:108ED000F8832D68013CF3E70433E918A6EB090693
:108EE0004A46381906F0DEF9B0454C442D68C146B3
:108EF0004FF0000328BFB146E8E741DF70470000AC
:108F0000064B10B500241C70054B1C60BFF35F8F2F
:108F10000449054800F032F8204610BD0C2B002013
:108F2000102B002000FF0200042B002007B50023B7
:108F30000DF107008DF80730FEF7B0F9F1EE103AA9
:108F400023F09F03E1EE103ABFF35F8F0A4B4022FC
:108F5000C3F884219DF80700FEF7C4F905F0BCFCB6
:108F600020B103B05DF804EBFFF7C7BF20BF40BFDF
:108F700020BF03B05DF804FB00E100E00B684A6825
:108F80004360934208BF0023016008BF43607047FD
:108F9000436843B10268916852680B44934243604E
:108FA00004BF00234360704710B50D49A1F59472CA
:108FB000914201D800200FE08C1AE30F03EBE40389
:108FC0005B1002EBC30452F83330834205D802D25F
:108FD00004F10802ECE7606810BD2146E8E700BF35
:108FE0000404030008B5FFF7DFFF024B002808BFA9
:108FF000184608BDC60203004FF0704393F8E02FF7
:10900000062A10D1D3F8E42F12070CD1D3F8E80FB9
:1090100000F0F003302B08D000F0E000A0F1400396
:1090200058425841704700207047012070474FF068
:10903000704393F8E02F062A0CD1D3F8E42F1207DF
:1090400008D1D3F8E80F00F0F000A0F13003584247
:10905000584170470020704708B5FFF7CDFF40B179
:109060004FF08053884AD3F82433C3F30423C2F863
:109070004035FFF7DCFF10B1844B854A5A67FFF794
:10908000BBFF48B14FF080534FF08042D3F84432D9
:10909000C3F34233C2F83C35FFF7C9FF30B17D4A14
:1090A000D2F8FC3023F08073C2F8FC30FFF7A4FF45
:1090B00040B14FF080430022C3F80C21C3F81021C7
:1090C000C3F83825FFF7B3FF20B14FF080430322E8
:1090D000C3F8A025FFF7ABFF60B16F4B0522C3F8C3
:1090E00010260122C3F888260022C3F818263F2242
:1090F000C3F814264FF0704393F8E02F062A50D19E
:10910000D3F8E42F11074CD1D3F8E83F03F0F00374
:10911000502B46D14FF08052604BD2F80414C3F864
:109120002015D2F80814C3F82415D2F80C14C3F88B
:109130002815D2F81014C3F82C15D2F81414C3F85B
:109140003015D2F81814C3F83415D2F81C14C3F82B
:109150004015D2F82014C3F84415D2F82414C3F8EB
:109160004815D2F82814C3F84C15D2F82C14C3F8BB
:109170005015D2F83014C3F85415D2F83414C3F88B
:109180006015D2F83814C3F86415D2F83C14C3F84B
:109190006815D2F84014C3F86C15D2F84424C3F80B
:1091A0007025FFF729FF48B14FF080534FF0804200
:1091B000D3F8583203F04F03C2F8E43EFFF71CFF28
:1091C00048B14FF08043D3F80024D20744BF6FF07A
:1091D0000102C3F800244FF08053D3F83021062A4F
:1091E0000AD1D3F83431062B01BF2D4AD2F83C37CF
:1091F00043F48063C2F83C37264AD2F8883043F4FF
:109200007003C2F88830BFF34F8FBFF36F8F4FF0FA
:109210001023D3F80022002A03DBD3F80432002BFA
:109220002EDA204B0122C3F80425D3F80024002AAB
:10923000FBD04FF010221521C2F80012D3F8002401
:10924000002AFBD04FF010231522C3F80422154B3F
:10925000D3F80024002AFBD00022C3F80425D3F859
:109260000024002AFBD0BFF34F8F0A490E4BCA6877
:1092700002F4E0621343CB60BFF34F8F00BFFDE702
:109280000A4B0B4A1A6008BD0030014000C007407D
:109290000DF0ADBA00ED00E00050004000C000400D
:1092A0000010004000E001400400FA05B822002050
:1092B0000090D003054A4FF0A043105CD3F804356A
:1092C00023FA00F0C04300F00100704708040300D7
:1092D000044B1A5C012393404FF0A042C2F80C35B6
:1092E000704700BF08040300044B1A5C012393403D
:1092F0004FF0A042C2F80835704700BF08040300D1
:1093000008B50020FFF7F0FF0120FFF7EDFF022076
:10931000FFF7EAFFBDE808400320FFF7E5BF08B507
:109320000020FFF7D5FF0120FFF7D2FF0220FFF753
:10933000CFFFBDE808400320FFF7CABF074A4FF040
:10934000A041105CD1F804350122824022EA0300DA
:109350001340C1F80805C1F80C3570470804030034
:10936000014B185C704700BF0404030038B5074C7C
:10937000051E04F1080318BF1C4623682BB11A68A8
:1093800022605B6828469847F7E738BD1C2B002011
:1093900020B9054B01225A70FFF7E8BF012802D11E
:1093A000014A9070F8E77047142B002020B9034B56
:1093B00001225A70FFF7DABF704700BF142B00205C
:1093C00038B50B4C237883B90A486360A3602361E6
:1093D000E36000F0D5F8054605F07EFA08B900F024
:1093E000DBF801232370284638BD8525FBE700BF45
:1093F000142B00209193020037B50B4C00230DF184
:1094000007008DF80730FDF749FFE368013BE36093
:10941000E56815B900F0D4F8A5709DF80700FDF7D0
:1094200061FF03B030BD00BF142B0020012813B52D
:1094300008D003281CD018B9114B0122C3F8802092
:1094400002B010BD0F4C00230DF107008DF807305E
:10945000FDF724FF23780BB9FFF7B2FFE3689DF80F
:1094600007000133E3600123A370FDF73BFFE7E74B
:1094700000F092F802B0BDE81040FFF7BDBF00BF9A
:1094800000E100E0142B00201FB503788DF80030B8
:1094900043680193037A8DF80830C368054A039343
:1094A000054B684653F8213052F82110984705B013
:1094B0005DF804FB282B00202C2B00201FB503781F
:1094C0008DF800304368019383688DF80830C368D5
:1094D000054A0393054B684653F8213052F8211092
:1094E000984705B05DF804FB282B00202C2B0020AA
:1094F000F0B5194B90F800C091F81DE043F82C200E
:10950000164B16460A6943F82C20154B03F80CE05D
:109510000C4607460FCC89B06D460FC594E80F0086
:1095200085E80F00CDF810C0BEF1000F09D0002E65
:109530000C4A694608BF3246381D00F06FFC09B07E
:10954000F0BD002E084A694608BF324607F10C00FC
:1095500000F05CFAF3E700BF2C2B0020282B002042
:10956000302B002089940200BD94020000F180405D
:10957000002382B0036003680193019B02B070472F
:10958000044A137923B9012110609180184670476D
:1095900085207047342B0020084B1A68D20706D468
:1095A000E02283F800230122C3F880211A604FF0E3
:1095B00080430122C3F81825704700BF00E100E096
:1095C0004FF080430122DA60D3F81824D203FBD491
:1095D000704700004FF0804110B5D1F8003163B101
:1095E0004FF48070FFF7C2FF0D4B58790122C1F88C
:1095F000082310B95A711B6898474FF08042D2F87F
:10960000043163B14FF48270FFF7B0FF0223C2F858
:109610000833034BBDE810401B680120184710BDFC
:10962000342B002000F1804000F5C040002382B0C0
:10963000036003680193019B02B07047800000F152
:10964000A040D0F8002722F44032C0F80027D0F81C
:10965000003743EA0141C0F800177047C2080123F0
:1096600000F0070003FA00F08B5C18438854704741
:109670002DE9F04F87B00024584D03944FF48072C9
:10968000012102F1804303F5C04390B21B68012B16
:1096900006D1D5F804330B4202D0FFF7C3FF0C43C9
:1096A0000432B2F5907F4FEA4101EAD14B4BD3F837
:1096B0007C31012B0AD14FF4BE70FFF7B3FF4FF09E
:1096C000A04344F00044D3F810350393E3B2D3B180
:1096D000434F00250126344210D0AB0003F18043F4
:1096E00003F5C043D3F81005D3F8101557F825300B
:1096F00023B1C1F30141C0F3042098470135082D7F
:109700004FEA4606E7D1002C61DA00224FF0FF3322
:10971000CDE90423DFF8C880DFF8C89000273E4673
:109720004FF0A04B19F9014B631C45D0C4F3C203A1
:1097300018336B440122E5B204F03F0004F0070443
:1097400002FA04F413F8042C224235D008EB00028C
:10975000AD0992F9302058F822A0BAF1000F09D1D2
:10976000032D29D104A901930090FFF777FFDDE9CC
:10977000000301E0032DF5D000F5E07113F80C3C77
:109780005BF821102342C1F3014105D0022913D116
:10979000032D0CD1294604E003290DD1032D06D158
:1097A000022100900136FFF749FF0098F6B2BAF1A6
:1097B000000F01D02946D0470137042FB2D136B16E
:1097C0004FF0A043039AD3F81035934202D107B06B
:1097D000BDE8F08F0393049B05939DE70060004074
:1097E0003C2B00208C2B0020014B1B68184700BF2E
:1097F000982B00200E4B984237B50C4602D0002023
:1098000003B030BD00230DF107008DF80730FDF7E0
:1098100045FD084B1D7915B901221C601A719DF890
:109820000700FDF75FFD002DE9D01120E8E700BF3C
:1098300000200040982B0020034B984201BF034BAF
:1098400000221A601A71704700200040982B0020F7
:109850000023435082B043580193019B02B07047EC
:109860000A4610B54FF48E71FFF7F2FF136A916844
:10987000C95C136A01331362C0F81C1510BD8B69F3
:109880000A4610B54FF4847123B9FFF7E1FFD0F811
:10989000183510BDFFF7DCFF536AD168D0F8180502
:1098A000C854536A01335362F3E700001FB5012324
:1098B0008DF80030044BCDE90110D3E90012684661
:1098C000904705B05DF804FBA02B002030B54D4D4E
:1098D000D5F804339A0585B051D5D5F82431002B3D
:1098E0004DD04FF492712846FFF7B2FF4FF4017349
:1098F000C5F80833444B93F829200AB901226A605D
:10990000404902228DF80020D1F88024C1F880243B
:1099100003929A690292DA6801920022C3E9062250
:109920006846D3E9001290473648D0F81C315BB145
:10993000354A116A536999424DD292F82830002B6A
:1099400049D11146FFF78CFF2E48D0F84431002B47
:1099500055D04FF4A271FFF77BFF2B4B93F82920D2
:109960000AB1012202609A69002A48D0586AD9686F
:1099700000229A6105B0BDE83040FFF797BFD5F8E7
:1099800004335B07D0D5D5F80831002BCCD01E4C62
:109990001C482146FFF773FF636AA2699A42C3D14C
:1099A000E369E1684BB1A3612369E3600023606A66
:1099B000E3616362FFF77AFFB6E794F829300BB9E9
:1099C00001236B600F4B4FF40172C3F8082300238F
:1099D000606AA361EEE74FF48E710A48FFF738FF23
:1099E00051690029B0D00023029191688DF80030B0
:1099F000019153616846D2E900139847A4E705B086
:109A000030BD00BF00200040A02B00202DE9F8430E
:109A1000594D90F804802C2303FB0853064693F815
:109A20002A300C469146002B40F0A2805349006832
:109A3000FFF7E0FE0746002840F09C80226830686F
:109A4000511C0BD04FF0A04101239340C1F80835C1
:109A500002F5E0734FF0030C41F823C061684B1C22
:109A60001FBF01F5E0734FF0A04C4FF0000E4CF813
:109A700023E0A369C0F8243594F814C0637DBCF1D9
:109A8000010F4CEA0303C0F86C35C0F81415C0F898
:109A90000C251DD1A268531C1FBF02F5E0734FF0C7
:109AA000A0414FF0000C41F823C0E368591C0BD0D3
:109AB0004FF0A04C01219940CCF8081503F5E07156
:109AC0004FF0030E4CF821E0C0F80835C0F810251F
:109AD0002C2202FB08F2AB18C3F804902369AB50A8
:109AE000B9F1000F31D04FF48E71227FFFF7B0FE35
:109AF00030684FF4A271FFF7ABFE33682049C3F81A
:109B00000413190B43F30733002BA8BF03F1604084
:109B10004FEA5313BCBF01F00F041A484FEA421238
:109B2000A8BF00F561404FEA8303D2B203F160435E
:109B3000B4BF025580F8002303F5614301F01F0113
:109B400001228A40C3F880211A6033680422C3F8D6
:109B500000252C2303FB08530022C3E9062283F8C7
:109B600029205A61012283F82A203846BDE8F8836B
:109B70000827FAE71127F8E7A02B0020CD9802006C
:109B80008000020014ED00E0F8B5057900682C4C67
:109B90000023C0F800352C2303FB05435B686BB141
:109BA000284BC0F8083340F30733C0F304315B0996
:109BB00001228A402033244941F82320D0F80C6543
:109BC000D0F81415D0F80835D0F810254FF0FF372D
:109BD000BE42C0F8147518BF06F5E076C0F80C75E3
:109BE000C0F80875C0F810751EBF4FF0A0474FF0C1
:109BF000020C47F826C04E1C1FBF4FF0A04601F5CF
:109C0000E071022746F82170511C1FBF4FF0A041A0
:109C100002F5E072022641F822605A1C1FBF03F5CC
:109C2000E0734FF0A042022142F82310FFF704FE38
:109C30002C2303FB0544002384F82A306360F8BD1D
:109C4000A02B00208402020000E100E00279044B16
:109C50002C2101FB02335869003818BF01207047DE
:109C6000A02B00202DE9F84F064689469246FFF7C3
:109C7000EDFF044600283DD196F804801F4F2C25A7
:109C800008FB057B4FF48E71CBF82000CBF814A0B5
:109C90008BF82800CBF808903068FFF7D9FD3068C2
:109CA000012383605946FFF7DBFDDBF804305D4696
:109CB00013BB30682A6A6B699A4211D33368D3F8B0
:109CC0001C21002AFBD00122DA6000202C2303FB98
:109CD000087700237B61BDE8F88F95F828303BB901
:109CE000D0F81C31002BF8D05946FFF7B9FDE1E759
:109CF0000F20EBE71120EEE72046ECE7A02B002039
:109D00000023435082B043580193019B02B0704737
:109D10001FB501238DF80030054B8DF80800019127
:109D20006846D3E90012904705B05DF804FB00BF18
:109D3000CC2B00207FB5374AD2F82461002E47D0C3
:109D400010464FF49271FFF7DBFF02238DF80030CD
:109D5000D2F88034C2F880340393D2F83C358DF8C1
:109D600008302D4BDA6801920022C3E906226846CA
:109D7000D3E9001290472748D0F844316BB14FF433
:109D8000A271FFF7BDFF244B9A6932B100229A619C
:109D9000D0F83C05D968FFF7BBFF1E48D0F820314A
:109DA000A3B14FF49071FFF7ABFF1B4B5A696AB137
:109DB000D0F84C158DF80810002299688DF8002015
:109DC00001915A616846D3E90012904704B070BD12
:109DD000D2F81031002BCED04FF488711046FFF727
:109DE0008FFF0D4BD2F83C0599698842C3D1DC69DD
:109DF000D96864B1D2F8005225F02005C2F80052AB
:109E00001A699C61DA60DE61FFF782FFB3E79C614B
:109E1000FAE700BF00200040CC2B00202DE9F843DA
:109E20005D4E90F80480242303FB0863054693F8F5
:109E300020300C469146002B40F0AA80574900681C
:109E4000FFF7D8FC0746002840F0A4802268286865
:109E5000511C0BD04FF0A04101239340C1F80835AD
:109E600002F5E0734FF0030C41F823C061684B1C0E
:109E70001FBF01F5E0734FF0A04C4FF0000E4CF8FF
:109E800023E0A369C0F8243594F814C0637DBCF1C5
:109E9000010F4CEA0303C0F86C35C0F80C25C0F87C
:109EA00014151DD1A268531C1FBF02F5E0734FF0BB
:109EB000A0414FF0000C41F823C0E368591C0BD0BF
:109EC0004FF0A04C01219940CCF8081503F5E07142
:109ED0004FF0030E4CF821E0C0F80835C0F810250B
:109EE000242202FB08F2B318C3F804902369B3508C
:109EF000B9F1000F3BD04FF48871227FFFF700FFCC
:109F000028684FF49071FFF7FBFE28684FF49271B8
:109F1000FFF7F6FE28684FF4A271FFF7F1FE2B68F9
:109F20001F49C3F80413190B43F30733002BA8BFD1
:109F300003F160404FEA5313BCBF01F00F0419480E
:109F40004FEA4212A8BF00F561404FEA8303D2B244
:109F500003F16043B4BF025580F8002303F5614369
:109F600001F01F0101228A40C3F880211A602B688A
:109F70000822C3F80025242303FB08660023C6E952
:109F800006337361012386F820303846BDE8F88334
:109F90000827FAE71127F8E7CC2B0020359D0200AF
:109FA0001003020014ED00E0F8B5057900682C4CB0
:109FB0000023C0F80035242303FB05435B686BB125
:109FC000284BC0F8083340F30733C0F304315B0972
:109FD00001228A402033244941F82320D0F80C651F
:109FE000D0F81415D0F80835D0F810254FF0FF3709
:109FF000BE42C0F80C7518BF06F5E076C0F81475BF
:10A00000C0F80875C0F810751EBF4FF0A0474FF09C
:10A01000020C47F826C04E1C1FBF4FF0A04601F5AA
:10A02000E071022746F82170511C1FBF4FF0A0417C
:10A0300002F5E072022641F822605A1C1FBF03F5A8
:10A04000E0734FF0A042022142F82310FFF7F4FB27
:10A05000242303FB0544002384F820306360F8BD0B
:10A06000CC2B00201003020000E100E00279044B39
:10A07000242101FB02335869003818BF01207047C2
:10A08000CC2B00202DE9F84301F06043B3F1005FD1
:10A0900006468846914634D1FFF7E8FF044690BB58
:10A0A00032791B4F3068242505FB02754FF49071FF
:10A0B000C5F81490C5F80880FFF722FE30684FF409
:10A0C000AC71FFF71DFE33686969A868C3F84405E1
:10A0D000C3F84815012199606968B1B9D3F8201116
:10A0E000D3F8580149B90028F8D00F20242303FBE6
:10A0F000027700237B61BDE8F883002818BF0F209A
:10A10000F4E71020F7E71120F5E72046F3E700BF5A
:10A11000CC2B00201FB503788DF800308388ADF874
:10A12000043083688DF80630C3688DF80730036902
:10A1300002934369054A0393054B684653F821305F
:10A1400052F82110984705B05DF804FBF02B002071
:10A15000F82B0020024B4FF4807043F001031847A6
:10A16000300403002DE9F047154690F80090324A7C
:10A1700042F82950314A42F829304B7B07460C46B9
:10A180006BB30868496882008B0002F1A04203F1BA
:10A19000A04340F20C66C2F800674FF0010AC3F812
:10A1A00000674FF0A0460AFA00F00AFA01F1C6F87B
:10A1B0000805C6F8081540F20D61C2F80017C3F88B
:10A1C0000017FFF7C7FF4FF00008D6F810256368A7
:10A1D00022FA03F3DB070DD5B8F1000F1DD1002DD6
:10A1E000174A4B4608BF2A462146381DBDE8F047AE
:10A1F00000F0D0B823680AFA03F3C6F80C35FFF76D
:10A20000A9FF23680AFA03F3C6F8083508F1010824
:10A21000FFF7A0FFB8F1090FD7D1636801264FF00F
:10A22000A04806FA03F3C8F80C35FFF793FF6368FC
:10A230009E40C8F80865D2E7F82B0020F02B0020DC
:10A2400015A102000023435082B043580193019BA3
:10A2500002B07047F0B54B4D4B4CD5F8243187B068
:10A26000A3B14FF492712846FFF7ECFFD5F8043103
:10A2700063B9A368C5F808330223A360A368C5F8CF
:10A28000043301232B626B6107B0F0BDD5F80431B4
:10A29000002B48D03D4F3B484FF48271FFF7D2FF6F
:10A2A0000FCF01AE0FC63B68336094F82E307BB100
:10A2B000237B012B0CBFD5F83C25D5F84C25029209
:10A2C000022B304B0CBFD3F83C35D3F84C350393FD
:10A2D0002C484FF4B071FFF7B5FF4FF4AE71FFF7A4
:10A2E000B1FF94F8303013B194F82E303BB1254BC8
:10A2F0000022C3F80022A260254AC3F80823214A9D
:10A30000D2F8C434C2F8C4349A0736D501238DF884
:10A31000003094F830300BB984F82F30D4E9003194
:10A3200068469847B0E717484FF4A471FFF78AFFD3
:10A33000237B83B9154F0FCF01AE0FC63B68336047
:10A3400094F83030002BDAD1C5F80032A360104BFE
:10A35000C5F80833D3E74FF40073C5F8003240F274
:10A360000223A36003F1CE73C5F80833A368C5F8D0
:10A3700004330123AB602B6286E713F0040318BF9C
:10A380000223C4E700300040002C00200C2C0020E9
:10A3900002029C012DE9F84F0679374D4FF0340A3F
:10A3A0000AFB06FA05EB0A049B4694F82D3080461A
:10A3B0000F469146002B5AD130490068FFF71AFA30
:10A3C000002856D13A687B7B84F832304FF0A041A8
:10A3D00002F5E073A060C4F804B084F82F0084F89C
:10A3E000300040F20C6445F80A9041F823407B6845
:10A3F00003F5E07C41F82C40D8F80040C4F808256B
:10A40000C4F80C35BB68C4F82435B9F1000F26D068
:10A4100044F30733002B3A7BB4BF194903F1604181
:10A42000C4F307344FEA5313B8BF04F00F074FEAE1
:10A430004212A8BF01F561414FEA8303D2B203F192
:10A440006043B4BFCA5581F8002303F5614304F0AB
:10A450001F04012202FA04F4C3F880411C60342373
:10A4600003FB0655012385F82D30BDE8F88F082041
:10A47000FBE71120F9E700BF002C002055A20200E5
:10A4800014ED00E0036802790621C3F80015044BBF
:10A49000342101FB0233022283F82D20704700BFD4
:10A4A000002C00202DE9F843CB6803F06043B3F1A2
:10A4B000005F0D46904603D010263046BDE8F88375
:10A4C00090F80490924F0468924BC4F808333426F5
:10A4D00006FB097696F82F3023B1B368C4F804332D
:10A4E0001126EAE712F0140F0CBF0123002386F8AF
:10A4F0002F308E46BEE80F0006F10C0CACE80F00C2
:10A50000DEF80030CCF80030C8F3001386F83030A5
:10A510006B78C4F888354FF482712046FFF792FEBD
:10A520004FF49271FFF78EFE18F0010318BF01235C
:10A53000C4F8503518F0020318BF0123C4F84035A1
:10A540002B78032B00F2C280DFE803F084AA6802B4
:10A550002B6903F06043B3F1005FADD14FF480731A
:10A56000C4F80032EA686B68C4F844254FF4A87157
:10A57000C4F84835FFF766FE4FF4B071FFF762FE8E
:10A580004FF4A471FFF75EFE01232362A360D4F8A9
:10A590005031002BFBD04FF4A8712046FFF752FE3C
:10A5A000AB682A69C4F84425C4F848355A4A3423AC
:10A5B00003FB09739A604FF482710823002618F098
:10A5C000080F04D12A78032A1CBF0122E250342349
:10A5D00003FB09F3FA18FB58002B7CD1012221441C
:10A5E0000B68002B00F084803422D4F8C434C4F803
:10A5F000C43402FB0977002287F82F20002B3FF498
:10A600005CAF13F0020F48F2012608BF032613F0D7
:10A61000040F48F2022318BF1E464EE76B68EA6833
:10A62000C4F84425C4F848352B6903F06042B2F100
:10A63000005F7FF441AFAA68C4F834354FF4845307
:10A64000C4F83825C4F80032342303FB097340F200
:10A650000222AFE76B68EA68C4F8442518F0200FBF
:10A66000C4F848354FF034030ED04FF4807203FB2A
:10A670000973C4F80022284A9A604FF4A471FFF7C6
:10A68000E1FD0123236298E74FF4007203FB097395
:10A69000C4F8002240F202229A604FF48271F0E77F
:10A6A0006B68EA68C4F83425C4F838354FF4805331
:10A6B000C4F80032342303FB097340F202229A608B
:10A6C000012323624FF48271002377E74FF48271F4
:10A6D0000823072673E718F0040F1CBF4FF400731C
:10A6E0009360342303FB0977BB68C4F80433E4E6C2
:10A6F000D4F82431002B3FF473AF4FF4927120460D
:10A70000FFF7A0FD22624FF48271626167E700BF2C
:10A71000002C002002029C0100020400F0B587B06A
:10A7200004460F4615460021142201A81E4604F0D7
:10A73000E2FD9DF830308DF80570002B14BF20220B
:10A74000002201A9204602960495FFF7ABFE07B050
:10A75000F0BDF0B587B004460F461546002114221F
:10A7600001A81E4604F0C7FD0123002201A92046CE
:10A770008DF804308DF8057002960495FFF792FE6F
:10A7800007B0F0BD08B5094B1B7853B10020FEF7A8
:10A79000ABFD0120FEF7A8FDBDE808400320FEF751
:10A7A000A3BDBDE80840FEF7ABBD00BF342C0020C0
:10A7B000F8B5784C237805461BB100232370FFF7CA
:10A7C000E1FF172D00F28380DFE805F00C13133E44
:10A7D0004F60717B83888388909595959595BFC4CC
:10A7E000CCD4DFDFFFF7CEFF6B4B00241C7020467C
:10A7F000F8BD0020FEF75EFDF0B10020FEF774FD0D
:10A80000022D0CBF4FF4E1644FF47A64624B1D706B
:10A8100000254FF400464FF4FA7029464FF47A723F
:10A820000023E4FB060104F0ABFB2A460146BDE829
:10A83000F8405A48FCF7DABCFEF74AFD022D0CBF7F
:10A84000C8244FF4C874E1E70020FEF733FD40B19F
:10A850000020FEF749FD4FF448744F4B03221A7055
:10A86000D6E7FEF735FDC824F7E70020FEF722FD06
:10A8700038B10020FEF738FD4FF47A64464B0422CD
:10A88000EDE7FEF725FD4FF4C874F7E70020FEF76B
:10A8900011FD48B10020FEF727FD3F4B05221A703D
:10A8A00041F69A110022C2E7FEF712FDF5E70020FB
:10A8B000FEF744FD384B06221A70002240F6CD41C7
:10A8C000B5E70020FEF704FD334B07221A70002481
:10A8D0008DE701202070FEF731FDEEE701202070AA
:10A8E000FEF72CFD00224FF48041A0E7FEF717FD94
:10A8F000294B0C22EAE72A482A4EFCF7BFFCD5F187
:10A90000110504461CD0D8B9012D13D0C8204543E9
:10A9100021464FF400474FF4FA704FF47A72002347
:10A92000C5FB070104F02CFB224601461C48FCF73E
:10A930005DFC04460220FEF7CBFC0123337056E792
:10A940000220FEF7D1FC0023F8E7FFF71BFF124BB4
:10A950001222BBE7FFF716FF0020FEF7B9FC0E4BF3
:10A960001322B3E7FFF70EFF0120FEF7B1FC0A4BFD
:10A970001422ABE7FFF706FF0020FEF7A9FC012039
:10A98000FEF7A6FC044B1522A0E7FEF7C8FC024B1D
:10A990001D709CE7882C0020892C0020582C00205A
:10A9A000382C0020342C002010B5002914BF0324BB
:10A9B0000024FEF7D5FC800000F1A040D0F800276D
:10A9C00022F44032C0F80027D0F8003743EA0443AD
:10A9D000C0F80037002010BD044B1B6813F00103C2
:10A9E00001D0FFF7E5BE1846704700BF842C002059
:10A9F000032811D8012A0AD101290FD100F10E0232
:10AA0000D2B20D4B00EB40001A54002070470129D0
:10AA1000F7D0022904D049B1072070470022F8E797
:10AA2000054B00EB400018444270EEE7024B00EB90
:10AA3000400018448270E8E7782C0020032802D8F0
:10AA40000121FFF7B1BF0620704708B5012202219E
:10AA50000020FFF7CDFF08B1072810D107220221FF
:10AA60000120FFF7C5FF08B1072808D100210A22FD
:10AA70000846FFF7BDFF10B1072808BF002008BD3A
:10AA80000388102B10B502D0112B1ED010BD1A4C0C
:10AA90002168B1B901220846FFF7AAFF08B10728CB
:10AAA00024D1072202210120FFF7A2FF08B10728C5
:10AAB0001CD1042202210020FFF79AFF08B10728C9
:10AAC00014D1236801332360E0E70B4A1368013B8C
:10AAD0001360002BDAD1FFF7B8FF0028D6D0074B60
:10AAE0001B68002BD2D0BDE810401847034B1B68F1
:10AAF000002BE6D09847E4E7902C00208C2C002017
:10AB000008B50020FFF79AFF08B1062806D10120FA
:10AB1000FFF794FF10B1062808BF002008BD76DFBC
:10AB200070477ADF70477CDF70478FDF704733DF15
:10AB30007047FCF7C5B8000008B5064804F0F8F9FE
:10AB40000449054804F01EF918B1BDE80840FCF7B7
:10AB5000B7B808BD942C0020502D00200388212B6D
:10AB600013B5044635D005D8102B17D0112B0AD0B9
:10AB700002B010BD3B2B01D0562BF9D1A088132178
:10AB8000FFF7CDFF1EE01A4B1A491888000440F069
:10AB9000030002B0BDE81040FBF71EBF144B16497E
:10ABA0001888000440F00300FBF716FF0720FFF7AA
:10ABB00013FF08B1FCF784F8104BA18810481980E6
:10ABC00002F05AF80028D3D002B0BDE81040FCF7DC
:10ABD00077B8002380888DF8043001A98DF80530FE
:10ABE000FFF7A3FF0028C3D0FCF76AF8C0E700BF57
:10ABF000302200203B04030049040300C02200204F
:10AC0000A02D002008B503784BB9054B3B211888CF
:10AC1000FFF785FF18B1BDE80840FCF751B808BD43
:10AC2000C022002008B50A7812B1012A0BD008BD55
:10AC300007484FF40041FCF7D9FA0028F7D0BDE8E7
:10AC40000840FCF73DB80248FCF718FBF5E700BFE9
:10AC5000802D002008B588B103281CD10E4B0F4968
:10AC60001888000440F00300FBF7B6FE0220FFF74F
:10AC7000B3FE80B1BDE80840FCF722B8FFF7ACFE98
:10AC800008B1FCF71DF8FFF73BFF08B1FCF718F817
:10AC9000FFF74DFFEDE708BD30220020540403000C
:10ACA00008B50548032100F0A5FD18B1BDE808402E
:10ACB000FCF706B808BD00BF982C002030B503781B
:10ACC00085B004460D2B23D8DFE803F007221222BB
:10ACD00024222C3F223B223F363F1D4B1D49188822
:10ACE000000440F0030005B0BDE83040FBF774BE3F
:10ACF000174B40881D8801F0C7F82D04237A009374
:10AD000045F003050246638813492846FBF77BFE9E
:10AD100005B030BD002340888DF80C3003A902F047
:10AD200079FDF5E7FDF7A0F930F00803F0D005B0A4
:10AD3000BDE83040FBF7C4BF05B0BDE83040FFF7C9
:10AD4000AFBF00690028E3D0F1E78068FAE700BFF1
:10AD500030220020660403008F040300FBF7B0BF1D
:10AD600000B54FF40041ADB00020FBF771FC08B115
:10AD7000FBF7A6FFFBF798FBFCF7F6F908B1FBF72A
:10AD80009FFF614A61480121FCF71EFA08B1FBF7F9
:10AD900097FFFEF7B5F808B1FBF792FF03F016FD39
:10ADA00008B1FBF78DFF002301A90120019303F0F7
:10ADB000E1FD08B1FBF784FF01A803F077FE08B1BD
:10ADC000FBF77EFF112352498DF8003009226846B7
:10ADD000FFF7A9FE08B1FBF773FF0023ADF80830B9
:10ADE0005023ADF80430A023ADF8063001A84FF48D
:10ADF000C873ADF80A30FFF794FE08B1FBF760FFA7
:10AE00004448002101F02AFE08B1FBF759FF002356
:10AE1000CDE901334048414B0093694601F01AFFE8
:10AE200008B1FBF74DFF3E4B019311238DF809301C
:10AE30003C4841F2111301A9ADF80A3003F0FAFEC3
:10AE400008B1FBF73DFFAC22002101A804F053FA42
:10AE500002238DF8043040F20163ADF8063001237F
:10AE60004FF49671ADF814308DF8803044F2506391
:10AE7000CDE923132C4A2D4B2D48069201A92A9384
:10AE800000F048FC08B1FBF71BFF2948012100F046
:10AE90003EFC1422002101A804F02DFA4FF4702387
:10AEA0004FF42032CDE9022303238DF81030214BDB
:10AEB000069301A8204B079300F000FF08B1FBF7B1
:10AEC000FFFE02F053FC08B1FBF7FAFE31238DF8C8
:10AED000043007238DF8053010238DF8063001A8C3
:10AEE00003238DF807308DF8083002F089FC08B193
:10AEF000FBF7E6FE114802F06BFC08B1FBF7E0FE41
:10AF00002DB05DF804FB00BF39AB020098050300CB
:10AF1000CF0403006C2D0020A02D002033AB0200D5
:10AF200025AC0200502D0020BC22002055AC0200B0
:10AF3000982C002005AC02005DAD0200BDAC020003
:10AF40002DE9F341334CFFF70BFF20883249000411
:10AF500040F00300FBF740FDFFF7A2FE20882F49D9
:10AF6000000440F00300FBF737FDFBF7D5FB054677
:10AF70000028FAD103F06AFF294FDFF8B8800126D4
:10AF800001230DF10702F1B23846FFF7E2FB40B9A9
:10AF9000208800043246414640F00300FBF720FDC4
:10AFA0000125FBF7B9FB0028FBD10136802EE7D144
:10AFB00055B920881B49000440F00300FBF70CFD45
:10AFC000FBF7AAFB0028FBD1174D184F45F00105F0
:10AFD0000DE020880004394640F00300FBF7FCFC3C
:10AFE0004FF47A764FF47A40A847013EFAD103F045
:10AFF0008FFF0028EDD020880D49000440F00300A9
:10B00000FBF7EAFCFBF788FB0028FBD1FDF78EFF7E
:10B01000F8E700BF30220020D90403000005030038
:10B02000A00503003A050300900503004F05030047
:10B0300070050300150503000369C26893429CBFB5
:10B0400080681B18013B981A70472DE9F843D0E936
:10B0500002940546A9EB04084068904520440F4639
:10B06000144404D904F01EF9EC60BDE8F8834246AC
:10B07000A4EB090404F016F96868224607EB0801FE
:10B08000F0E72DE9F843C5680646894617464FF0B4
:10B0900000083469B3687068A54228BFE418013C11
:10B0A000621B5C1BBC4228BF3C46944228BF14462E
:10B0B00049462844224604F0F5F8B3682544AB42DB
:10B0C00008BF00253F1BA044A144F560E1D14046E4
:10B0D000BDE8F88310B5114C114AA2610223C4E9FE
:10B0E0000433104BE361A2644FF400730E4A0F491E
:10B0F0002362E26400231022E01DA3626362E36224
:10B10000A3656365E365226504F028F908492046D4
:10B1100004F024F92023A37110BD00BFAC2D002042
:10B12000AC050300342E0020242E0020B5050300BA
:10B13000B905030070B5164B182400FB04451D44E7
:10B1400004FB00331646DC6A012C0ED0022C18D00A
:10B15000E4B92846FFF770FF864204D832462846F5
:10B16000FFF773FF3446204670BD2846FFF764FFA3
:10B170008642344628BF044622462846FFF765FF2C
:10B18000F1E72846BDE87040FFF77BBF0024EAE7FF
:10B19000AC2D002073B50E4B1B7804460D461646A9
:10B1A0000BB9FFF797FF00230DF107008DF807306B
:10B1B000FCF774F8324629462046FFF7BBFF0446E9
:10B1C0009DF80700FCF78EF8204602B070BD00BF66
:10B1D000AC2D00200FB410B5A2B024AB802153F8E1
:10B1E000042B019302A804F04DF8802804460ADDE0
:10B1F000802202A90020FFF7CDFF204622B0BDE843
:10B20000104004B070470028F7DD0246F1E76DDF1B
:10B21000704779DF70477DDF704764DF70472DE945
:10B22000F04F85B000250E9CBDF83CB0B4F800A0EE
:10B230000191074690461E46A9463A884A450DDCCC
:10B2400045B12388013BA3EB0A039BB2FF2B3AD8FD
:10B2500006F80A30002005B0BDE8F08F7A6852F891
:10B260002900039000220DF10B0103A8FFF7D5FF81
:10B270000028F0D19DF80B20424521D12288002DD5
:10B2800014BF0020022002EB0801014459451ADCDA
:10B290003DB9013292B2019B2280B354228801321F
:10B2A000228022880DF10B01324403A8FFF7B5FF7D
:10B2B0000028D0D121889DF80B200A442280012546
:10B2C00009F10109B9E70C20C5E72DE9F341089F11
:10B2D000BDF824801546CDE90078022204461E46BA
:10B2E000FFF79DFF50B93346102229462046CDE98D
:10B2F000087802B0BDE8F041FFF791BF02B0BDE8A9
:10B30000F0812DE9F04F00231788138090F82D303D
:10B3100085B006460D4614465BB3082F01D80C20B5
:10B320004EE102A8FFF773FF002840F0498123880F
:10B33000DDF809100822EA54238801339BB21B224E
:10B340002380EA54238801339BB2EA182380E95012
:10B35000BDF80D30938023889DF8082006339BB2FA
:10B3600012F0FE0218BF01222380EA542388013321
:10B370002380B378FBB123880433BB42CFD802A823
:10B38000FFF747FF002840F01B8123880322EA547F
:10B39000238801339BB219222380EA542388BDF805
:10B3A000082001339BB2E9182380EA54120A4A703C
:10B3B000238802332380F2789AB12388D91CB942BA
:10B3C000ADD80221E954238801339BB201212380A7
:10B3D000E95423880B449BB22380EA5423880B440E
:10B3E00023807268AAB12388D91CB94297D8022158
:10B3F00092F90020E954238801339BB20A2123806B
:10B40000E954238801339BB22380EA542388013313
:10B4100023803389002B40F0C780338A5BB1CDE9AC
:10B4200000472B460722032106F11000FFF74DFFCE
:10B43000002840F0C580338B5BB1CDE900472B4637
:10B440001522142106F11800FFF73FFF002840F0F5
:10B45000B780326A002A40F0B680D6F82480B8F16E
:10B46000000F31D0B8F804302188981C8A1C02449F
:10B47000BA423FF654AFFE283FF651AF03336B5448
:10B48000238801339BB2FF222380EA5423880133AF
:10B490009BB22380B8F80020EA54E918120A4A70D7
:10B4A0002088023080B22080B8F8042062B1D8F839
:10B4B0000810002900F09180284403F0F3FE23884F
:10B4C000B8F804201344238096F82C30002B43D086
:10B4D000B36A002B00F081804FF000084FF00C0A97
:10B4E0004FF0160BB16A5FFA88F20AFB02F201EB29
:10B4F0000209B9F80430981CFE283FF610AF2088E6
:10B5000003332B54238801339BB2238005F803B007
:10B51000238801339BB223808A5AEA54E918120A1D
:10B520004A702088023080B22080B9F804205AB1D5
:10B53000D9F80810002950D0284403F0B3FE23881E
:10B54000B9F804201344238096F82C2008F1010850
:10B550005FFA88F39A42C5D8307888B33388012BD4
:10B560003BD0228802F1020CBC453FF6D8AE012840
:10B5700005D17378023313449F42FFF4D0AE023FEB
:10B58000BF1ABFB202A905EB0C00ADF80870FFF7B7
:10B5900042FEA8B93378022B58D1BDF80830BB421F
:10B5A0006DD9ADF8087058E0CDE900472B4606226A
:10B5B000022106F10800FFF788FE00283FF42DAFB6
:10B5C00005B0BDE8F08FB4F800C00CF10603BB4233
:10B5D0003FF6A5AE1188052901D80720F0E76FF4E2
:10B5E000486E01EB0E039BB24FF27D3E7345F4D9DA
:10B5F0005388052BF1D96FF44860181880B2704554
:10B60000EBD94FF6FF70814201D09942E5D805236E
:10B6100005F80C30238801339BB212212380E954B2
:10B62000238801339BB223801188E954E818090A62
:10B630004170238802339BB223805288EA54E91870
:10B64000120A4A7023880233238006E7012BA8D10F
:10B6500073789F42A5D3ADF808300821BDF80830B3
:10B66000FE2B3FF65CAE22880133AB5422880132B8
:10B6700092B22280A954228813442380A0E7092192
:10B68000ECE770B5C0B14AB116880024B44203D3C8
:10B6900005196D789D4208D0A14201D800200BE029
:10B6A000055D01352C44A4B2F0E7A142F6D9A31CF4
:10B6B0001380005D013880B270BD13B513460022BF
:10B6C000ADF806200DF106020446FFF7DAFF10B1CF
:10B6D000BDF80630E01802B010BD72DF704773DFAE
:10B6E000704738B5012204460D46B0F89810D0F8DE
:10B6F0009400FFF7E2FF00B1057004F13C0204F191
:10B70000940104F15400BDE83840FFF7E6BF80F82B
:10B7100030107047F8B504460F46002966D000285F
:10B7200064D091F87A301BB191F89830002B5FD13A
:10B73000D7F8A030042B5BD0D7F89C30042B57D01F
:10B740004FF0000C84F802C007F178060FCE251DDB
:10B750000FC50FCE0FC596E8070085E8070084F8EF
:10B7600030C0D7F8A4306363D7F8A830A36304F1DE
:10B7700094024FF6FF73C4F8AAC0A4F8A830C4F826
:10B78000A420C4F8ADC022780AB984F85430224607
:10B7900004F155011F25C4F89410384622F8985F2B
:10B7A000FFF7AFFD08BB224604F17401C4F89C10FA
:10B7B00007F13C0022F8A05FFFF7A3FDA8B9A36939
:10B7C000A4F848304FF480730125A4F85030636921
:10B7D0002064014684F83C50636404F13C0204F1A7
:10B7E0005400FFF77AFF00B92570F8BD0E20FCE782
:10B7F0000720FAE72DE9F041077804460D46002FAF
:10B8000000F0108181700020FDF71EF9064620B17E
:10B81000012363700020BDE8F081E388C4F8AA002A
:10B8200004F1AA08C4F8AD0013B1A378012B04D029
:10B83000E3794BB1A378022B06D1636BA3B101224C
:10B8400084F8B1200820984704F1AB0204F1B1015B
:10B8500012F8013B5BB99142FAD16A1E032A4FD814
:10B86000DFE802F0070D111484F8B130ECE73B4635
:10B87000F3E7A2791AB194F8242002B95BB9E2790E
:10B880000AB1002B3ED1237A002B3DD1637A002BE5
:10B890000CBF00250425636BA570002B36D0033D3B
:10B8A000012D33D862798AB394F8B22072BB84F840
:10B8B000B420012284F8B3200720984704F13C0506
:10B8C00018220021284603F016FDE26A0123511ECA
:10B8D000994284F83C3098BFD3B284F8513094F840
:10B8E000243098BF3E461BB1A6B1A26A84F852200C
:10B8F000A278042A1ED8DFE802F07E0F283C600000
:10B900000025C8E70225C6E70325C4E7002384F81D
:10B91000B330D3E70122E9E7012384F83130002373
:10B92000C4E91083C4F8A430022384F83C30802397
:10B93000A4F84830A378002B61D1636B002B3FF44F
:10B9400069AF94F83100984764E7002B14BF0723D0
:10B95000032384F83C302369A4F8483000230222F2
:10B96000C4F8A430E36884F83120C4F840806364EC
:10B97000E0E762696264A269A4F8482013B1062373
:10B9800084F83C306379B3B194F8B2309BB994F841
:10B99000B43083B1022384F8503004212046FFF7ED
:10B9A000A0FE0028C6D1052384F8313004F19403A9
:10B9B000C4F8A430BEE70323F6E7E2696264226AB2
:10B9C000A4F8482013B1062384F83C30637983B18E
:10B9D00094F8B2306BB994F8B43053B1022384F8C0
:10B9E000503004212046FFF77CFE0028A2D1062318
:10B9F000DAE70423D8E7002384F831309AE7D4F853
:10BA0000A4102A4604F15400FFF767FE00287FF4D3
:10BA100002AF94F8301094F85400FFF760FE00284D
:10BA20008BD0F8E60820F6E60388112B10B50C46FB
:10BA30000AD0262B1FD0102B05D1C37B012B02D19E
:10BA40008388A1F8A83010BD0022838881F8B22035
:10BA5000B1F8A8209A42F6D10B79002BF3D101213D
:10BA60002046FFF7C7FE0028EDD0A36B002BEAD0DD
:10BA7000BDE810401847037A013B012BE3D88978D1
:10BA800005230131B1FBF3F303EB8303C91AC9B2F8
:10BA9000E6E70238012810B50C460DD84B785BB1AB
:10BAA00000234B7020468978FFF7A4FE20B1A36BDA
:10BAB00013B1BDE81040184710BD75DF704776DF41
:10BAC00070477ADF70477BDF70470000034B1A88AE
